:1000000012C019C018C017C016C015C014C013C044
:1000100012C012C010C00FC00EC00DC00CC00BC06B
:100020000AC009C008C011241FBECFE5D4E0DEBF5E
:10003000CDBF14D0C6C1E4CF1F920F920FB60F925E
:1000400011248F939F9392B380E1892782BB9F9164
:100050008F910F900FBE0F901F9018958FEF87BB59
:10006000379A87B1806C87B987B1856087B98C9AD8
:1000700083E083BF12BE89B7816089BF7894369AC6
:100080003699FECF64B185B170E0782B80E090E0C6
:100090007FD020E030E040EA5BE3DFD06B017C0101
:1000A00026E636E646E650E4D4D018160CF06AC0D0
:1000B000C0982AE939E949E550E4C701B601C9D039
:1000C00018160CF05DC0C1982DEC3CEC4CE450E4EB
:1000D000C701B601BED018160CF050C0C29A20E07D
:1000E00030E040E450E4C701B601B3D018160CF07C
:1000F00043C0C39A23E333E343E350E4C701B601AB
:10010000A8D01816BCF5C49A26E636E646E250E4B6
:10011000C701B6019ED018165CF5C59A20E030E004
:1001200040E250E4C701B60194D01816FCF4C69A18
:100130002AE939E949E150E4C701B60125D0C6985A
:1001400087FF9DCF2FE58AEE90E0215080409040C0
:10015000E1F700C00000C69A2FE58AEE90E021503A
:1001600080409040E1F700C0000089CFC698E0CF02
:10017000C598D4CFC498C8CFC398BCCFC298AFCFCE
:10018000C19AA2CFC09A95CF40D008F481E00895DB
:10019000E89409C097FB3EF4909580957095619521
:1001A0007F4F8F4F9F4F9923A9F0F92F96E9BB27D7
:1001B0009395F695879577956795B795F111F8CF53
:1001C000FAF4BB0F11F460FF1BC06F5F7F4F8F4FBE
:1001D0009F4F16C0882311F096E911C0772321F0B4
:1001E0009EE8872F762F05C0662371F096E8862F4C
:1001F00070E060E02AF09A95660F771F881FDAF7A3
:10020000880F9695879597F90895990F0008550FCF
:10021000AA0BE0E8FEEF16161706E807F907C0F08C
:1002200012161306E407F50798F0621B730B840B94
:10023000950B39F40A2661F0232B242B252B21F46E
:1002400008950A2609F4A140A6958FEF811D811D0E
:100250000895DBDF08F48FEF08950BD078C069D0E4
:1002600028F06ED018F0952309F05AC05FC0112411
:10027000A2C07ED0A0F3959FD1F3950F50E0551FFB
:10028000629FF001729FBB27F00DB11D639FAA27EB
:10029000F00DB11DAA1F649F6627B00DA11D661F3A
:1002A000829F2227B00DA11D621F739FB00DA11D5B
:1002B000621F839FA00D611D221F749F3327A00D15
:1002C000611D231F849F600D211D822F762F6A2FB1
:1002D00011249F5750408AF0E1F088234AF0EE0F36
:1002E000FF1FBB1F661F771F881F91505040A9F743
:1002F0009E3F510570F014C05EC05F3FECF3983E26
:10030000DCF3869577956795B795F795E7959F5FA9
:10031000C1F7FE2B880F911D9695879597F9089543
:1003200097F99F6780E870E060E008959FEF80ECA8
:10033000089500240A94161617061806090608954B
:1003400000240A9412161306140605060895092EB1
:100350000394000C11F4882352F0BB0F40F4BF2B20
:1003600011F460FF04C06F5F7F4F8F4F9F4F089560
:1003700057FD9058440F551F59F05F3F71F0479556
:10038000880F97FB991F61F09F3F79F0879508953B
:10039000121613061406551FF2CF4695F1DF08C05A
:1003A000161617061806991FF1CF86957105610577
:1003B00008940895E894BB2766277727CB0197F91F
:0603C0000895F894FFCF40
:00000001FF
